:020000040000FA
:100000000C9462000C948A000C948A000C948A0070
:100010000C948A000C948A000C948A000C948A0038
:100020000C948A000C948A000C948A000C948A0028
:100030000C948A000C948A000C948A000C948A0018
:100040000C94C3030C948A000C948A000C948A00CC
:100050000C948A000C948A000C948A000C948A00F8
:100060000C948A000C948A000000000024002700F1
:100070002A0000000000250028002B0000000000DE
:1000800023002600290004040404040404040202DA
:100090000202020203030303030301020408102007
:1000A0004080010204081020010204081020000012
:1000B0000008000201000003040700000000000027
:1000C0000000E10511241FBECFEFD8E0DEBFCDBF99
:1000D00011E0A0E0B1E0E4E8F3E102C005900D9288
:1000E000AA33B107D9F721E0AAE3B1E001C01D921C
:1000F000A037B207E1F710E0C2E6D0E004C02197D4
:10010000FE010E949508C136D107C9F70E940D046F
:100110000C94C0090C940000AF92BF92CF92DF9272
:10012000EF92FF920F931F93CF93DF936C017B01AC
:100130008B01040F151FEB015E01AE18BF08C0173D
:10014000D10759F06991D601ED91FC910190F081B0
:10015000E02DC6010995892B79F7C501DF91CF9173
:100160001F910F91FF90EF90DF90CF90BF90AF90D5
:100170000895833081F028F4813099F08230A9F01D
:1001800008958730A9F08830C9F08430B1F48091A7
:1001900080008F7D03C0809180008F7780938000E6
:1001A000089584B58F7784BD089584B58F7DFBCF86
:1001B0008091B0008F778093B00008958091B00057
:1001C0008F7DF9CFCF93DF93282F30E0F901E255EF
:1001D000FF4F8491F901E656FF4FD491F901EA5798
:1001E000FF4FC491CC23A1F081110E94B900EC2FE4
:1001F000F0E0EE0FFF1FE458FF4FA591B491EC9192
:10020000ED2381E090E009F480E0DF91CF91089543
:1002100080E090E0FACF1F93CF93DF93282F30E058
:10022000F901E255FF4F8491F901E656FF4FD49151
:10023000F901EA57FF4FC491CC23A9F0162F811181
:100240000E94B900EC2FF0E0EE0FFF1FEE58FF4FB9
:10025000A591B4918FB7F894EC91111108C0D09585
:10026000DE23DC938FBFDF91CF911F910895DE2BAA
:10027000F8CFCF93DF9390E0FC01E656FF4F249137
:100280008A579F4FFC0184918823C9F090E0880F22
:10029000991FFC01E859FF4FA591B491FC01EE585C
:1002A000FF4FC591D49161110DC09FB7F8948C9107
:1002B000209582238C938881282328839FBFDF91F8
:1002C000CF910895623051F49FB7F8943C91822FFA
:1002D000809583238C93E8812E2BEFCF8FB7F894F2
:1002E000EC912E2B2C938FBFEACF3FB7F8948091DF
:1002F0003F0190914001A0914101B091420126B58A
:10030000A89B05C02F3F19F00196A11DB11D3FBF4D
:10031000BA2FA92F982F8827BC01CD01620F711D1C
:10032000811D911D42E0660F771F881F991F4A9516
:10033000D1F708950C947501089590E080E0089538
:10034000089560E084E00E940B0160E085E00C9479
:100350000B01FF920F931F93CF93DF93F82E062F7D
:10036000C7E0D0E010E061E0802F0E940B018F2DEC
:100370000E94E2000C2E01C0880F0A94EAF7182BA5
:1003800060E0802F0E940B01219768F7812FDF9199
:10039000CF911F910F91FF900895EF92FF920F93CD
:1003A0001F93CF93DF93809162010E94E200892B1B
:1003B00019F00E949A01F7CFDFB7F89460916101BC
:1003C000809162010E94A901082F609161018091D2
:1003D00062010E94A901C82F6091610180916201B0
:1003E0000E94A901182FF12CE12C809163018E1538
:1003F0001F0479F070F061E0809161010E940B01AF
:1004000060E0809161010E940B018FEFE81AF80A09
:10041000ECCFDFBF6C2F70E090E080E0982F872F4B
:10042000762F6627802B612B000F000B10E030E049
:1004300020E0302F222711270027602B712B822BE1
:10044000932BDF91CF911F910F91FF90EF90089523
:10045000CF93DF93EC0160E08E810E940B0161E09D
:100460008E810E940B0160E08E810E940B018BE85F
:1004700091E00197F1F7DF91CF910895CF92DF924C
:10048000EF92FF920F931F93CF93DF936C017C0148
:1004900087E0E80EF11CD0E0C0E0062F10E0B801C4
:1004A0000C2E02C0759567950A94E2F76170F7010A
:1004B00081917F010E940B012196C430D10579F70B
:1004C000C601DF91CF911F910F91FF90EF90DF90C8
:1004D000CF900C942802CF92DF92EF92FF920F936D
:1004E0001F93CF93DF93EC01F62E642F8C810E9433
:1004F0000B018D818F3F19F060E00E940B010F2DE1
:1005000010E08F8584FF25C06E0187E0C80ED11CE6
:10051000F12CE12CB8010E2C02C0759567950A9458
:10052000E2F76170F60181916F010E940B01FFEF0C
:10053000EF1AFF0A88E0E816F10461F7CE01DF91B7
:10054000CF911F910F91FF90EF90DF90CF900C947F
:100550002802B80184E0759567958A95E1F7CE0188
:100560000E943E026F2DCE01DF91CF911F910F911E
:10057000FF90EF90DF90CF900C943E0240E0682F08
:1005800087E491E00C946B02CF93DF93823029F4DF
:100590009091560198609093560180935A01109261
:1005A0005B0180E480935C0180E180935D0180E5E4
:1005B00080935E0161E080914B010E94390180913E
:1005C0004C018F3F19F061E00E94390161E0809198
:1005D0004D010E943901C7E4D1E09E01275431400A
:1005E0008091560184FD0BC084E090E0219628178D
:1005F000390744F461E08E810E943901EECF88E032
:1006000090E0F4CF8BE39DE00197F1F760E08091FB
:100610004B010E940B0160E080914D010E940B0193
:1006200080914C018F3F19F060E00E940B01809196
:10063000560184FD39C063E087E491E00E943E02E8
:10064000CBE4D6E4CE010197F1F763E087E491E0D3
:100650000E943E022197F1F763E087E491E00E9457
:100660003E0283E592E00197F1F762E087E491E0D2
:100670000E943E028091560180620E94BE0284E088
:10068000809357018CE00E94BE0281E00E94BE026E
:100690008BE39FE10197F1F782E08093580186E0B8
:1006A000DF91CF910C94BE0280620E94BE028BE467
:1006B00096E40197F1F78091560180620E94BE0294
:1006C00083E592E00197F1F78091560180620E94E4
:1006D000BE02D0CF41E00E946B0281E090E008951D
:1006E000FC0101900020E9F73197AF01481B590B3D
:1006F000BC0187E491E00C948C008F929F92AF92A2
:10070000BF920F931F93CF93DF93CDB7DEB7A1971F
:100710000FB6F894DEBF0FBECDBF19A2423008F469
:100720004AE08E010F5D1F4F842E912CB12CA12C1D
:10073000A50194010E945408E62FB901CA01EA30CC
:10074000F4F4E05DD801EE938D01232B242B252BAF
:1007500079F790E080E0109719F0CD010E947003C6
:10076000A1960FB6F894DEBF0FBECDBFDF91CF913B
:100770001F910F91BF90AF909F908F900895E95C6B
:10078000E1CF0C9437091F920F920FB60F921124EC
:100790002F933F938F939F93AF93BF9380913B0190
:1007A00090913C01A0913D01B0913E0130913A0100
:1007B00023E0230F2D3758F50196A11DB11D20937D
:1007C0003A0180933B0190933C01A0933D01B0938B
:1007D0003E0180913F0190914001A0914101B09173
:1007E00042010196A11DB11D80933F0190934001EC
:1007F000A0934101B0934201BF91AF919F918F911E
:100800003F912F910F900FBE0F901F90189526E8E3
:10081000230F0296A11DB11DD2CF789484B58260BA
:1008200084BD84B5816084BD85B5826085BD85B594
:10083000816085BD80916E00816080936E00109212
:10084000810080918100826080938100809181008D
:10085000816080938100809180008160809380001E
:100860008091B10084608093B1008091B00081607C
:100870008093B00080917A00846080937A008091A8
:100880007A00826080937A0080917A008160809300
:100890007A0080917A00806880937A001092C1007B
:1008A00061E084E00E94390161E085E00E94390145
:1008B00060E084E00E940B0160E085E00E940B0193
:1008C00082E00E94C40260E086E00E94390160E09C
:1008D00087E00E94390160E081E00E94390182E0F6
:1008E0008093610183E08093620161E082E00E9475
:1008F000390162E0809162010E94390181E08093B8
:10090000630184E29BEDACE8B6E4809368019093C8
:100910006901A0936A01B0936B01CAE0C12CD12C8C
:1009200076010E94CD01C60ED71EE81EF91E0E9458
:100930009A01C150B1F7C701B6012AE030E040E0AA
:1009400050E00E947608CA01B9010E942D070E945A
:10095000F50660936401709365018093660190933E
:100960006701C0E0D0E00E94CD016B017C010E94D4
:100970009A018091640190916501A0916601B09106
:100980006701A7019601281B390B4A0B5B0BCA01B3
:10099000B9010E942D0720916801309169014091B1
:1009A0006A0150916B010E94830620E030E040E034
:1009B0005FE30E94E20760934301709344018093D8
:1009C000450190934601E1E080915A018111E0E0F8
:1009D000E195F0E0E95BFE4F848980680E94BE02E9
:1009E0008AE191E00E947003E0915A01E23008F040
:1009F00056C0E150F0E0E95BFE4F84898A5F806871
:100A00000E94BE02C0904301D0904401E090450195
:100A1000F0904601A7019601C701B6010E944F0858
:100A2000882309F43EC08AE291E00E94700386E3C5
:100A300091E00E947003C0904301D0904401E09087
:100A40004501F090460120E030E040E752E4C70164
:100A5000B6010E94DD0718160CF09BC00E94A10190
:100A600087E00E94E200892B69F420E030E040E753
:100A700052E4C701B6010E94DD0718160CF098C0B9
:100A80000E94A10181E00E94E200892B11F40E94E2
:100A9000A101209709F467CF0E94000064CFE1E034
:100AA000A9CF46015701E894B7F82FEF3FEF4FE782
:100AB0005FE7C501B4010E944F0881110DC02FEFFF
:100AC0003FEF4FE75FE7C501B4010E947E061816AD
:100AD0001CF48EE291E0A9CF2FEF3FEF4FE75FE4E8
:100AE000C701B6010E94DD0718161CF482E391E0ED
:100AF0009CCF2FEF3FEF4FE75FECC701B6010E949D
:100B00007E0687FDF3CF20E030E0A901C701B601E2
:100B10000E947E0687FF0AC041E06DE287E491E013
:100B20000E946B02F7FAF094F7F8F0942DEC3CEC8D
:100B30004CE45DE3C701B6010E9412064B015C0163
:100B40000E94FC066B017C010E942B079B01AC01FB
:100B5000C501B4010E9411064B015C014AE0C701C6
:100B6000B6010E947D0341E06EE287E491E00E94BD
:100B70006B0220E030E040E251E4C501B4010E9484
:100B8000E2070E94FC0690E080E04AE00E947D03BC
:100B90004ECF86E00E94E200892B09F061CF61E030
:100BA00084E00E940B0160E085E00E940B0158CFB9
:100BB00060E084E00E940B0161E085E00E940B018F
:100BC00061CFEFE5F1E086E191E0918380831582CA
:100BD00016821782108680E090E0A0E8BFE381874C
:100BE0009287A387B487E7E4F1E0138212828AE058
:100BF00091E0918380838DE084838FEF85838CE007
:100C000086838BE087838AE0808789E0818788E01C
:100C100082871386148615861686178681E00C94C3
:100C2000C4025058BB27AA270E9429060C94A30788
:100C30000E94950738F00E949C0720F039F49F3FEE
:100C400019F426F40C9492070EF4E095E7FB0C944B
:100C50008C07E92F0E94B40758F3BA17620773078D
:100C60008407950720F079F4A6F50C94D6070EF4C6
:100C7000E0950B2EBA2FA02D0B01B90190010C01AC
:100C8000CA01A0011124FF27591B99F0593F50F4C4
:100C9000503E68F11A16F040A22F232F342F44271C
:100CA000585FF3CF469537952795A795F040539514
:100CB000C9F77EF41F16BA0B620B730B840BBAF0E4
:100CC0009150A1F0FF0FBB1F661F771F881FC2F74F
:100CD0000EC0BA0F621F731F841F48F48795779563
:100CE0006795B795F7959E3F08F0B0CF9395880F1D
:100CF00008F09927EE0F9795879508950E94680749
:100D000008F481E008950E9497060C94A3070E94BE
:100D10009C0758F00E94950740F029F45F3F29F0A6
:100D20000C948C0751110C94D7070C9492070E94D5
:100D3000B40768F39923B1F3552391F3951B550B31
:100D4000BB27AA2762177307840738F09F5F5F4F9E
:100D5000220F331F441FAA1FA9F335D00E2E3AF0DD
:100D6000E0E832D091505040E695001CCAF72BD0F5
:100D7000FE2F29D0660F771F881FBB1F2617370746
:100D80004807AB07B0E809F0BB0B802DBF01FF2778
:100D900093585F4F3AF09E3F510578F00C948C07C2
:100DA0000C94D7075F3FE4F3983ED4F3869577958C
:100DB0006795B795F7959F5FC9F7880F911D969531
:100DC000879597F90895E1E0660F771F881FBB1F8D
:100DD000621773078407BA0720F0621B730B840B3A
:100DE000BA0BEE1F88F7E09508950E94FC06689400
:100DF000B1110C94D70708950E94BC0788F09F5743
:100E000098F0B92F9927B751B0F0E1F0660F771F2E
:100E1000881F991F1AF0BA95C9F714C0B13091F024
:100E20000E94D607B1E008950C94D607672F782F5B
:100E30008827B85F39F0B93FCCF3869577956795E9
:100E4000B395D9F73EF490958095709561957F4F55
:100E50008F4F9F4F0895E89409C097FB3EF49095FB
:100E60008095709561957F4F8F4F9F4F9923A9F083
:100E7000F92F96E9BB279395F69587957795679512
:100E8000B795F111F8CFFAF4BB0F11F460FF1BC056
:100E90006F5F7F4F8F4F9F4F16C0882311F096E9E9
:100EA00011C0772321F09EE8872F762F05C0662397
:100EB00071F096E8862F70E060E02AF09A95660F50
:100EC000771F881FDAF7880F9695879597F9089509
:100ED000990F0008550FAA0BE0E8FEEF161617064B
:100EE000E807F907C0F012161306E407F50798F0B3
:100EF000621B730B840B950B39F40A2661F0232BCC
:100F0000242B252B21F408950A2609F4A140A69547
:100F10008FEF811D811D089597F99F6780E870E02C
:100F200060E008959FEF80EC089500240A9416165F
:100F3000170618060906089500240A9412161306C7
:100F4000140605060895092E0394000C11F4882355
:100F500052F0BB0F40F4BF2B11F460FF04C06F5F71
:100F60007F4F8F4F9F4F089557FD9058440F551F47
:100F700059F05F3F71F04795880F97FB991F61F01B
:100F80009F3F79F087950895121613061406551F92
:100F9000F2CF4695F1DF08C0161617061806991FFE
:100FA000F1CF86957105610508940895E894BB27F3
:100FB00066277727CB0197F908950E94680708F400
:100FC0008FEF08950E94F5070C94A3070E949507E0
:100FD00038F00E949C0720F0952311F00C948C07A8
:100FE0000C94920711240C94D7070E94B40770F355
:100FF000959FC1F3950F50E0551F629FF001729FBE
:10100000BB27F00DB11D639FAA27F00DB11DAA1FCC
:10101000649F6627B00DA11D661F829F2227B00D19
:10102000A11D621F739FB00DA11D621F839FA00DA4
:10103000611D221F749F3327A00D611D231F849FF4
:10104000600D211D822F762F6A2F11249F5750404B
:101050009AF0F1F088234AF0EE0FFF1FBB1F661FC6
:10106000771F881F91505040A9F79E3F510580F08F
:101070000C948C070C94D7075F3FE4F3983ED4F3AD
:10108000869577956795B795F795E7959F5FC1F733
:10109000FE2B880F911D9695879597F908950E94CC
:1010A0006807880B990B0895A1E21A2EAA1BBB1B97
:1010B000FD010DC0AA1FBB1FEE1FFF1FA217B30724
:1010C000E407F50720F0A21BB30BE40BF50B661F3A
:1010D000771F881F991F1A9469F7609570958095FE
:1010E00090959B01AC01BD01CF010895052E97FBA2
:1010F0001EF400940E948D0857FD07D00E945408EA
:1011000007FC03D04EF40C948D0850954095309513
:1011100021953F4F4F4F5F4F089590958095709563
:1011200061957F4F8F4F9F4F0895EE0FFF1F0590E2
:10113000F491E02D09940F931F93CF93DF938230A6
:10114000910510F482E090E0E0916E01F0916F0162
:1011500030E020E0B0E0A0E0309799F421153105AF
:1011600009F44AC0281B390B24303105D8F58A818F
:101170009B816115710589F1FB0193838283FE01D7
:1011800011C0408151810281138148175907E0F055
:101190004817590799F4109761F012960C9312971B
:1011A00013961C933296CF01DF91CF911F910F912F
:1011B000089500936E0110936F01F4CF211531054E
:1011C00051F04217530738F0A901DB019A01BD0124
:1011D000DF01F801C1CFEF01F9CF90936F01809348
:1011E0006E01CDCFFE01E20FF31F81939193225048
:1011F000310939832883D7CF20916C0130916D015B
:10120000232B41F4209102013091030130936D01B1
:1012100020936C01209100013091010121153105CD
:1012200041F42DB73EB74091040150910501241BB4
:10123000350BE0916C01F0916D01E217F307A0F41A
:101240002E1B3F0B2817390778F0AC014E5F5F4F1C
:101250002417350748F04E0F5F1F50936D014093E0
:101260006C01819391939FCFF0E0E0E09CCFCF930E
:10127000DF930097E9F0FC01329713821282A0916C
:101280006E01B0916F01ED0130E020E01097A1F404
:1012900020813181820F931F20916C0130916D016B
:1012A0002817390709F061C0F0936D01E0936C01D4
:1012B000DF91CF910895EA01CE17DF07E8F54A8163
:1012C0005B819E0141155105B1F7E901FB83EA837A
:1012D00049915991C40FD51FEC17FD0761F4808126
:1012E00091810296840F951FE901998388838281F9
:1012F00093819B838A83F0E0E0E012968D919C912C
:1013000013970097B9F52D913C911197CD01029655
:10131000820F931F20916C0130916D0128173907BE
:1013200039F6309751F510926F0110926E01B0931B
:101330006D01A0936C01BCCFD383C28340815181E6
:10134000840F951FC817D90761F44E5F5F4F8881DE
:101350009981480F591F518340838A819B819383D0
:1013600082832115310509F0B0CFF0936F01E0932E
:101370006E019ECFFD01DC01C0CF13821282D7CF58
:10138000F894FFCF000070018000000000006A03A5
:101390008C009D019C0100000000A001C103574585
:1013A00049474854204D45415355524544006E61CC
:0E13B0006E00696E66006F766600204B670067
:107E0000112484B714BE81FFF0D085E080938100F7
:107E100082E08093C00088E18093C10086E0809377
:107E2000C20080E18093C4008EE0C9D0259A86E02C
:107E300020E33CEF91E0309385002093840096BBD3
:107E4000B09BFECF1D9AA8958150A9F7CC24DD24C4
:107E500088248394B5E0AB2EA1E19A2EF3E0BF2EE7
:107E6000A2D0813461F49FD0082FAFD0023811F036
:107E7000013811F484E001C083E08DD089C08234E0
:107E800011F484E103C0853419F485E0A6D080C0E4
:107E9000853579F488D0E82EFF2485D0082F10E0AE
:107EA000102F00270E291F29000F111F8ED06801E7
:107EB0006FC0863521F484E090D080E0DECF843638
:107EC00009F040C070D06FD0082F6DD080E0C81688
:107ED00080E7D80618F4F601B7BEE895C0E0D1E017
:107EE00062D089930C17E1F7F0E0CF16F0E7DF06D8
:107EF00018F0F601B7BEE89568D007B600FCFDCFD4
:107F0000A601A0E0B1E02C9130E011968C91119780
:107F100090E0982F8827822B932B1296FA010C0160
:107F200087BEE89511244E5F5F4FF1E0A038BF0790
:107F300051F7F601A7BEE89507B600FCFDCF97BE46
:107F4000E89526C08437B1F42ED02DD0F82E2BD052
:107F50003CD0F601EF2C8F010F5F1F4F84911BD097
:107F6000EA94F801C1F70894C11CD11CFA94CF0C13
:107F7000D11C0EC0853739F428D08EE10CD085E9AC
:107F80000AD08FE07ACF813511F488E018D01DD067
:107F900080E101D065CF982F8091C00085FFFCCF94
:107FA0009093C60008958091C00087FFFCCF809118
:107FB000C00084FD01C0A8958091C6000895E0E648
:107FC000F0E098E1908380830895EDDF803219F02E
:107FD00088E0F5DFFFCF84E1DECF1F93182FE3DFCA
:107FE0001150E9F7F2DF1F91089580E0E8DFEE27F6
:047FF000FF270994CA
:027FFE00040479
:00000001FF
